{
  "address": "0x5FbDB2315678afecb367f032d93F642f64180aa3",
  "abi": [
    {
      "inputs": [],
      "stateMutability": "payable",
      "type": "constructor"
    },
    {
      "anonymous": false,
      "inputs": [
        {
          "indexed": true,
          "internalType": "address",
          "name": "player",
          "type": "address"
        },
        {
          "indexed": false,
          "internalType": "uint256",
          "name": "betAmount",
          "type": "uint256"
        },
        {
          "indexed": false,
          "internalType": "uint8",
          "name": "choice",
          "type": "uint8"
        }
      ],
      "name": "GameCreated",
      "type": "event"
    },
    {
      "anonymous": false,
      "inputs": [
        {
          "indexed": true,
          "internalType": "address",
          "name": "player",
          "type": "address"
        },
        {
          "indexed": false,
          "internalType": "uint256",
          "name": "prize",
          "type": "uint256"
        },
        {
          "indexed": false,
          "internalType": "uint256",
          "name": "choice",
          "type": "uint256"
        },
        {
          "indexed": false,
          "internalType": "uint256",
          "name": "result",
          "type": "uint256"
        },
        {
          "indexed": false,
          "internalType": "enum CoinFlip.Status",
          "name": "status",
          "type": "uint8"
        }
      ],
      "name": "GamePlayed",
      "type": "event"
    },
    {
      "inputs": [],
      "name": "coeff",
      "outputs": [
        {
          "internalType": "uint256",
          "name": "",
          "type": "uint256"
        }
      ],
      "stateMutability": "view",
      "type": "function"
    },
    {
      "inputs": [
        {
          "internalType": "bytes32",
          "name": "seed",
          "type": "bytes32"
        },
        {
          "internalType": "uint8",
          "name": "_v",
          "type": "uint8"
        },
        {
          "internalType": "bytes32",
          "name": "_r",
          "type": "bytes32"
        },
        {
          "internalType": "bytes32",
          "name": "_s",
          "type": "bytes32"
        }
      ],
      "name": "confirm",
      "outputs": [],
      "stateMutability": "nonpayable",
      "type": "function"
    },
    {
      "inputs": [],
      "name": "croupie",
      "outputs": [
        {
          "internalType": "address",
          "name": "",
          "type": "address"
        }
      ],
      "stateMutability": "view",
      "type": "function"
    },
    {
      "inputs": [
        {
          "internalType": "bytes32",
          "name": "",
          "type": "bytes32"
        }
      ],
      "name": "games",
      "outputs": [
        {
          "internalType": "uint256",
          "name": "id",
          "type": "uint256"
        },
        {
          "internalType": "address",
          "name": "player",
          "type": "address"
        },
        {
          "internalType": "uint8",
          "name": "choice",
          "type": "uint8"
        },
        {
          "internalType": "uint256",
          "name": "betAmount",
          "type": "uint256"
        },
        {
          "internalType": "uint256",
          "name": "prize",
          "type": "uint256"
        },
        {
          "internalType": "uint256",
          "name": "result",
          "type": "uint256"
        },
        {
          "internalType": "enum CoinFlip.Status",
          "name": "status",
          "type": "uint8"
        }
      ],
      "stateMutability": "view",
      "type": "function"
    },
    {
      "inputs": [],
      "name": "gamesCount",
      "outputs": [
        {
          "internalType": "uint256",
          "name": "",
          "type": "uint256"
        }
      ],
      "stateMutability": "view",
      "type": "function"
    },
    {
      "inputs": [],
      "name": "maxBet",
      "outputs": [
        {
          "internalType": "uint256",
          "name": "",
          "type": "uint256"
        }
      ],
      "stateMutability": "view",
      "type": "function"
    },
    {
      "inputs": [],
      "name": "minBet",
      "outputs": [
        {
          "internalType": "uint256",
          "name": "",
          "type": "uint256"
        }
      ],
      "stateMutability": "view",
      "type": "function"
    },
    {
      "inputs": [],
      "name": "owner",
      "outputs": [
        {
          "internalType": "address",
          "name": "",
          "type": "address"
        }
      ],
      "stateMutability": "view",
      "type": "function"
    },
    {
      "inputs": [
        {
          "internalType": "uint8",
          "name": "choice",
          "type": "uint8"
        },
        {
          "internalType": "bytes32",
          "name": "seed",
          "type": "bytes32"
        }
      ],
      "name": "play",
      "outputs": [],
      "stateMutability": "payable",
      "type": "function"
    },
    {
      "inputs": [],
      "name": "profit",
      "outputs": [
        {
          "internalType": "uint256",
          "name": "",
          "type": "uint256"
        }
      ],
      "stateMutability": "view",
      "type": "function"
    },
    {
      "inputs": [
        {
          "internalType": "uint256",
          "name": "_minBet",
          "type": "uint256"
        },
        {
          "internalType": "uint256",
          "name": "_maxBet",
          "type": "uint256"
        }
      ],
      "name": "setBetRange",
      "outputs": [],
      "stateMutability": "nonpayable",
      "type": "function"
    },
    {
      "inputs": [
        {
          "internalType": "uint256",
          "name": "_coeff",
          "type": "uint256"
        }
      ],
      "name": "setCoeff",
      "outputs": [],
      "stateMutability": "nonpayable",
      "type": "function"
    },
    {
      "inputs": [],
      "name": "status",
      "outputs": [
        {
          "internalType": "enum CoinFlip.Status",
          "name": "",
          "type": "uint8"
        }
      ],
      "stateMutability": "view",
      "type": "function"
    },
    {
      "inputs": [
        {
          "internalType": "uint256",
          "name": "_amount",
          "type": "uint256"
        }
      ],
      "name": "withdraw",
      "outputs": [],
      "stateMutability": "nonpayable",
      "type": "function"
    }
  ],
  "transactionHash": "0x6c3bee9c797c17f435248f81c5cea140b10a48331b7fad56ab2ddc88fbe3a562",
  "args": [],
  "numDeployments": 1,
  "solcInputHash": "c2a7e575a817447322c137d7dfb3b6e2",
  "bytecode": "0x608060405260008060006101000a81548160ff02191690836002811115610029576100286100d5565b5b0217905550662386f26fc10000600555678ac7230489e8000060065560c36007554760085533600260006101000a81548173ffffffffffffffffffffffffffffffffffffffff021916908373ffffffffffffffffffffffffffffffffffffffff16021790555033600360006101000a81548173ffffffffffffffffffffffffffffffffffffffff021916908373ffffffffffffffffffffffffffffffffffffffff160217905550610104565b7f4e487b7100000000000000000000000000000000000000000000000000000000600052602160045260246000fd5b611b2c806101136000396000f3fe6080604052600436106100dd5760003560e01c80639619367d1161007f578063b00606a511610059578063b00606a51461028a578063bbe8dbcf146102b3578063f579f882146102cf578063fb632b7c14610312576100dd565b80639619367d1461020d578063a718104e14610238578063abae505014610261576100dd565b806366d16cc3116100bb57806366d16cc31461016157806379ae409b1461018c57806387b261ad146101b75780638da5cb5b146101e2576100dd565b8063200d2ed2146100e25780632e1a7d4d1461010d5780632e5b216814610136575b600080fd5b3480156100ee57600080fd5b506100f761033d565b6040516101049190611378565b60405180910390f35b34801561011957600080fd5b50610134600480360381019061012f9190611066565b61034e565b005b34801561014257600080fd5b5061014b610484565b60405161015891906114b3565b60405180910390f35b34801561016d57600080fd5b5061017661048a565b60405161018391906114b3565b60405180910390f35b34801561019857600080fd5b506101a1610490565b6040516101ae9190611318565b60405180910390f35b3480156101c357600080fd5b506101cc6104b6565b6040516101d991906114b3565b60405180910390f35b3480156101ee57600080fd5b506101f76104bc565b6040516102049190611318565b60405180910390f35b34801561021957600080fd5b506102226104e2565b60405161022f91906114b3565b60405180910390f35b34801561024457600080fd5b5061025f600480360381019061025a9190611066565b6104e8565b005b34801561026d57600080fd5b5061028860048036038101906102839190611093565b6105c5565b005b34801561029657600080fd5b506102b160048036038101906102ac9190610fff565b6106f8565b005b6102cd60048036038101906102c891906110d3565b610b20565b005b3480156102db57600080fd5b506102f660048036038101906102f19190610fd2565b610e4f565b60405161030997969594939291906114ce565b60405180910390f35b34801561031e57600080fd5b50610327610ecb565b60405161033491906114b3565b60405180910390f35b60008054906101000a900460ff1681565b600260009054906101000a900473ffffffffffffffffffffffffffffffffffffffff1673ffffffffffffffffffffffffffffffffffffffff163373ffffffffffffffffffffffffffffffffffffffff16146103de576040517f08c379a00000000000000000000000000000000000000000000000000000000081526004016103d5906113f3565b60405180910390fd5b47811115610421576040517f08c379a000000000000000000000000000000000000000000000000000000000815260040161041890611473565b60405180910390fd5b806008600082825461043391906116b3565b925050819055503373ffffffffffffffffffffffffffffffffffffffff166108fc829081150290604051600060405180830381858888f19350505050158015610480573d6000803e3d6000fd5b5050565b60065481565b60085481565b600360009054906101000a900473ffffffffffffffffffffffffffffffffffffffff1681565b60075481565b600260009054906101000a900473ffffffffffffffffffffffffffffffffffffffff1681565b60055481565b600260009054906101000a900473ffffffffffffffffffffffffffffffffffffffff1673ffffffffffffffffffffffffffffffffffffffff163373ffffffffffffffffffffffffffffffffffffffff1614610578576040517f08c379a000000000000000000000000000000000000000000000000000000000815260040161056f906113f3565b60405180910390fd5b606481116105bb576040517f08c379a00000000000000000000000000000000000000000000000000000000081526004016105b290611473565b60405180910390fd5b8060078190555050565b600260009054906101000a900473ffffffffffffffffffffffffffffffffffffffff1673ffffffffffffffffffffffffffffffffffffffff163373ffffffffffffffffffffffffffffffffffffffff1614610655576040517f08c379a000000000000000000000000000000000000000000000000000000000815260040161064c906113f3565b60405180910390fd5b6000811180156106655750600082115b6106a4576040517f08c379a000000000000000000000000000000000000000000000000000000000815260040161069b90611433565b60405180910390fd5b8181116106e6576040517f08c379a00000000000000000000000000000000000000000000000000000000081526004016106dd90611493565b60405180910390fd5b81600581905550806006819055505050565b836000600160008381526020019081526020016000206000015414610752576040517f08c379a000000000000000000000000000000000000000000000000000000000815260040161074990611393565b60405180910390fd5b60006040518060400160405280601c81526020017f19457468657265756d205369676e6564204d6573736167653a0a3332000000008152509050600081876040516020016107a19291906112f0565b604051602081830303815290604052805190602001209050600360009054906101000a900473ffffffffffffffffffffffffffffffffffffffff1673ffffffffffffffffffffffffffffffffffffffff16600182888888604051600081526020016040526040516108159493929190611333565b6020604051602081039080840390855afa158015610837573d6000803e3d6000fd5b5050506020604051035173ffffffffffffffffffffffffffffffffffffffff1614610897576040517f08c379a000000000000000000000000000000000000000000000000000000000815260040161088e90611453565b60405180910390fd5b600060028560001c6108a991906117f7565b90506000600160008a81526020019081526020016000209050818160010160149054906101000a900460ff1660ff1614156109f55760018160050160006101000a81548160ff0219169083600281111561090657610905611886565b5b021790555060016000806101000a81548160ff021916908360028111156109305761092f611886565b5b0217905550818160040181905550606460075482600201546109529190611659565b61095c9190611628565b816003018190555080600301546008600082825461097a91906116b3565b925050819055508060010160009054906101000a900473ffffffffffffffffffffffffffffffffffffffff1673ffffffffffffffffffffffffffffffffffffffff166108fc82600301549081150290604051600060405180830381858888f193505050501580156109ef573d6000803e3d6000fd5b50610a73565b60028160050160006101000a81548160ff02191690836002811115610a1d57610a1c611886565b5b021790555060026000806101000a81548160ff02191690836002811115610a4757610a46611886565b5b0217905550818160040181905550806002015460086000828254610a6b91906115d2565b925050819055505b8060010160009054906101000a900473ffffffffffffffffffffffffffffffffffffffff1673ffffffffffffffffffffffffffffffffffffffff167f273691d76e742e50a25676f32533b8e1643978710ca9cb8ab0f40d5dd2bdafbd82600301548360010160149054906101000a900460ff1684600401548560050160009054906101000a900460ff16604051610b0d9493929190611566565b60405180910390a2505050505050505050565b806000600160008381526020019081526020016000206000015414610b7a576040517f08c379a0000000000000000000000000000000000000000000000000000000008152600401610b7190611393565b60405180910390fd5b60008360ff161480610b8f575060018360ff16145b610bce576040517f08c379a0000000000000000000000000000000000000000000000000000000008152600401610bc5906113d3565b60405180910390fd5b610bd9600854610ed1565b6005543410158015610bed57506006543411155b610c2c576040517f08c379a0000000000000000000000000000000000000000000000000000000008152600401610c23906113b3565b60405180910390fd5b6000606460075434610c3e9190611659565b610c489190611628565b9050806008541015610c8f576040517f08c379a0000000000000000000000000000000000000000000000000000000008152600401610c8690611413565b60405180910390fd5b60046000815480929190610ca2906117a4565b91905055503460086000828254610cb991906115d2565b925050819055506040518060e0016040528060045481526020013373ffffffffffffffffffffffffffffffffffffffff1681526020018560ff168152602001348152602001600081526020016000815260200160006002811115610d2057610d1f611886565b5b815250600160008581526020019081526020016000206000820151816000015560208201518160010160006101000a81548173ffffffffffffffffffffffffffffffffffffffff021916908373ffffffffffffffffffffffffffffffffffffffff16021790555060408201518160010160146101000a81548160ff021916908360ff160217905550606082015181600201556080820151816003015560a0820151816004015560c08201518160050160006101000a81548160ff02191690836002811115610df157610df0611886565b5b02179055509050503373ffffffffffffffffffffffffffffffffffffffff167f813c6ee3dcb6de7261f7e83f20145431b1c006bc9e1145d89835d62dd31155503486604051610e4192919061153d565b60405180910390a250505050565b60016020528060005260406000206000915090508060000154908060010160009054906101000a900473ffffffffffffffffffffffffffffffffffffffff16908060010160149054906101000a900460ff16908060020154908060030154908060040154908060050160009054906101000a900460ff16905087565b60045481565b610f6781604051602401610ee591906114b3565b6040516020818303038152906040527ff5b1bba9000000000000000000000000000000000000000000000000000000007bffffffffffffffffffffffffffffffffffffffffffffffffffffffff19166020820180517bffffffffffffffffffffffffffffffffffffffffffffffffffffffff8381831617835250505050610f6a565b50565b60008151905060006a636f6e736f6c652e6c6f679050602083016000808483855afa5050505050565b600081359050610fa281611ab1565b92915050565b600081359050610fb781611ac8565b92915050565b600081359050610fcc81611adf565b92915050565b600060208284031215610fe857610fe76118b5565b5b6000610ff684828501610f93565b91505092915050565b60008060008060808587031215611019576110186118b5565b5b600061102787828801610f93565b945050602061103887828801610fbd565b935050604061104987828801610f93565b925050606061105a87828801610f93565b91505092959194509250565b60006020828403121561107c5761107b6118b5565b5b600061108a84828501610fa8565b91505092915050565b600080604083850312156110aa576110a96118b5565b5b60006110b885828601610fa8565b92505060206110c985828601610fa8565b9150509250929050565b600080604083850312156110ea576110e96118b5565b5b60006110f885828601610fbd565b925050602061110985828601610f93565b9150509250929050565b61111c816116e7565b82525050565b61112b816116f9565b82525050565b61114261113d826116f9565b6117ed565b82525050565b6000611153826115ab565b61115d81856115b6565b935061116d818560208601611771565b80840191505092915050565b6111828161174d565b82525050565b6000611195601a836115c1565b91506111a0826118ba565b602082019050919050565b60006111b8601b836115c1565b91506111c3826118e3565b602082019050919050565b60006111db601c836115c1565b91506111e68261190c565b602082019050919050565b60006111fe6014836115c1565b915061120982611935565b602082019050919050565b60006112216029836115c1565b915061122c8261195e565b604082019050919050565b60006112446023836115c1565b915061124f826119ad565b604082019050919050565b6000611267600c836115c1565b9150611272826119fc565b602082019050919050565b600061128a6005836115c1565b915061129582611a25565b602082019050919050565b60006112ad6023836115c1565b91506112b882611a4e565b604082019050919050565b6112cc81611736565b82525050565b6112db8161175f565b82525050565b6112ea81611740565b82525050565b60006112fc8285611148565b91506113088284611131565b6020820191508190509392505050565b600060208201905061132d6000830184611113565b92915050565b60006080820190506113486000830187611122565b61135560208301866112e1565b6113626040830185611122565b61136f6060830184611122565b95945050505050565b600060208201905061138d6000830184611179565b92915050565b600060208201905081810360008301526113ac81611188565b9050919050565b600060208201905081810360008301526113cc816111ab565b9050919050565b600060208201905081810360008301526113ec816111ce565b9050919050565b6000602082019050818103600083015261140c816111f1565b9050919050565b6000602082019050818103600083015261142c81611214565b9050919050565b6000602082019050818103600083015261144c81611237565b9050919050565b6000602082019050818103600083015261146c8161125a565b9050919050565b6000602082019050818103600083015261148c8161127d565b9050919050565b600060208201905081810360008301526114ac816112a0565b9050919050565b60006020820190506114c860008301846112c3565b92915050565b600060e0820190506114e3600083018a6112c3565b6114f06020830189611113565b6114fd60408301886112e1565b61150a60608301876112c3565b61151760808301866112c3565b61152460a08301856112c3565b61153160c0830184611179565b98975050505050505050565b600060408201905061155260008301856112c3565b61155f60208301846112e1565b9392505050565b600060808201905061157b60008301876112c3565b61158860208301866112d2565b61159560408301856112c3565b6115a26060830184611179565b95945050505050565b600081519050919050565b600081905092915050565b600082825260208201905092915050565b60006115dd82611736565b91506115e883611736565b9250827fffffffffffffffffffffffffffffffffffffffffffffffffffffffffffffffff0382111561161d5761161c611828565b5b828201905092915050565b600061163382611736565b915061163e83611736565b92508261164e5761164d611857565b5b828204905092915050565b600061166482611736565b915061166f83611736565b9250817fffffffffffffffffffffffffffffffffffffffffffffffffffffffffffffffff04831182151516156116a8576116a7611828565b5b828202905092915050565b60006116be82611736565b91506116c983611736565b9250828210156116dc576116db611828565b5b828203905092915050565b60006116f282611716565b9050919050565b6000819050919050565b600081905061171182611a9d565b919050565b600073ffffffffffffffffffffffffffffffffffffffff82169050919050565b6000819050919050565b600060ff82169050919050565b600061175882611703565b9050919050565b600061176a82611740565b9050919050565b60005b8381101561178f578082015181840152602081019050611774565b8381111561179e576000848401525b50505050565b60006117af82611736565b91507fffffffffffffffffffffffffffffffffffffffffffffffffffffffffffffffff8214156117e2576117e1611828565b5b600182019050919050565b6000819050919050565b600061180282611736565b915061180d83611736565b92508261181d5761181c611857565b5b828206905092915050565b7f4e487b7100000000000000000000000000000000000000000000000000000000600052601160045260246000fd5b7f4e487b7100000000000000000000000000000000000000000000000000000000600052601260045260246000fd5b7f4e487b7100000000000000000000000000000000000000000000000000000000600052602160045260246000fd5b600080fd5b7f436f696e466c69703a204f6e6c7920756e697175652073656564000000000000600082015250565b7f436f696e466c69703a206f6e6c792062657420696e2072616e67650000000000600082015250565b7f436f696e466c69703a2043686f696365206f6e6c792030206f72203100000000600082015250565b7f436f696e666c69703a204f6e6c79204f776e6572000000000000000000000000600082015250565b7f436f696e466c69703a206e6f7420656e6f756768742062616c616e6365206f6e60008201527f20636f6e74726163740000000000000000000000000000000000000000000000602082015250565b7f4572726f723a204d696e20616e64204d61782062657473206c6573732074686160008201527f6e20300000000000000000000000000000000000000000000000000000000000602082015250565b7f496e76616c6964207369676e0000000000000000000000000000000000000000600082015250565b7f4572726f72000000000000000000000000000000000000000000000000000000600082015250565b7f4572726f723a204d696e206265742067726561746572207468616e204d61782060008201527f6265740000000000000000000000000000000000000000000000000000000000602082015250565b60038110611aae57611aad611886565b5b50565b611aba816116f9565b8114611ac557600080fd5b50565b611ad181611736565b8114611adc57600080fd5b50565b611ae881611740565b8114611af357600080fd5b5056fea2646970667358221220af2ec0e48cfcf7d580b78bc8c2dc937ab42f315947daaaf071cc5e9e00a43e6b64736f6c63430008070033",
  "devdoc": {
    "kind": "dev",
    "methods": {},
    "version": 1
  },
  "userdoc": {
    "kind": "user",
    "methods": {},
    "version": 1
  },
  "storageLayout": {
    "storage": [
      {
        "astId": 11,
        "contract": "contracts/CoinFlip.sol:CoinFlip",
        "label": "status",
        "offset": 0,
        "slot": "0",
        "type": "t_enum(Status)6"
      },
      {
        "astId": 32,
        "contract": "contracts/CoinFlip.sol:CoinFlip",
        "label": "games",
        "offset": 0,
        "slot": "1",
        "type": "t_mapping(t_bytes32,t_struct(Game)27_storage)"
      },
      {
        "astId": 34,
        "contract": "contracts/CoinFlip.sol:CoinFlip",
        "label": "owner",
        "offset": 0,
        "slot": "2",
        "type": "t_address"
      },
      {
        "astId": 36,
        "contract": "contracts/CoinFlip.sol:CoinFlip",
        "label": "croupie",
        "offset": 0,
        "slot": "3",
        "type": "t_address"
      },
      {
        "astId": 38,
        "contract": "contracts/CoinFlip.sol:CoinFlip",
        "label": "gamesCount",
        "offset": 0,
        "slot": "4",
        "type": "t_uint256"
      },
      {
        "astId": 41,
        "contract": "contracts/CoinFlip.sol:CoinFlip",
        "label": "minBet",
        "offset": 0,
        "slot": "5",
        "type": "t_uint256"
      },
      {
        "astId": 44,
        "contract": "contracts/CoinFlip.sol:CoinFlip",
        "label": "maxBet",
        "offset": 0,
        "slot": "6",
        "type": "t_uint256"
      },
      {
        "astId": 47,
        "contract": "contracts/CoinFlip.sol:CoinFlip",
        "label": "coeff",
        "offset": 0,
        "slot": "7",
        "type": "t_uint256"
      },
      {
        "astId": 54,
        "contract": "contracts/CoinFlip.sol:CoinFlip",
        "label": "profit",
        "offset": 0,
        "slot": "8",
        "type": "t_uint256"
      }
    ],
    "types": {
      "t_address": {
        "encoding": "inplace",
        "label": "address",
        "numberOfBytes": "20"
      },
      "t_bytes32": {
        "encoding": "inplace",
        "label": "bytes32",
        "numberOfBytes": "32"
      },
      "t_enum(Status)6": {
        "encoding": "inplace",
        "label": "enum CoinFlip.Status",
        "numberOfBytes": "1"
      },
      "t_mapping(t_bytes32,t_struct(Game)27_storage)": {
        "encoding": "mapping",
        "key": "t_bytes32",
        "label": "mapping(bytes32 => struct CoinFlip.Game)",
        "numberOfBytes": "32",
        "value": "t_struct(Game)27_storage"
      },
      "t_struct(Game)27_storage": {
        "encoding": "inplace",
        "label": "struct CoinFlip.Game",
        "members": [
          {
            "astId": 13,
            "contract": "contracts/CoinFlip.sol:CoinFlip",
            "label": "id",
            "offset": 0,
            "slot": "0",
            "type": "t_uint256"
          },
          {
            "astId": 15,
            "contract": "contracts/CoinFlip.sol:CoinFlip",
            "label": "player",
            "offset": 0,
            "slot": "1",
            "type": "t_address"
          },
          {
            "astId": 17,
            "contract": "contracts/CoinFlip.sol:CoinFlip",
            "label": "choice",
            "offset": 20,
            "slot": "1",
            "type": "t_uint8"
          },
          {
            "astId": 19,
            "contract": "contracts/CoinFlip.sol:CoinFlip",
            "label": "betAmount",
            "offset": 0,
            "slot": "2",
            "type": "t_uint256"
          },
          {
            "astId": 21,
            "contract": "contracts/CoinFlip.sol:CoinFlip",
            "label": "prize",
            "offset": 0,
            "slot": "3",
            "type": "t_uint256"
          },
          {
            "astId": 23,
            "contract": "contracts/CoinFlip.sol:CoinFlip",
            "label": "result",
            "offset": 0,
            "slot": "4",
            "type": "t_uint256"
          },
          {
            "astId": 26,
            "contract": "contracts/CoinFlip.sol:CoinFlip",
            "label": "status",
            "offset": 0,
            "slot": "5",
            "type": "t_enum(Status)6"
          }
        ],
        "numberOfBytes": "192"
      },
      "t_uint256": {
        "encoding": "inplace",
        "label": "uint256",
        "numberOfBytes": "32"
      },
      "t_uint8": {
        "encoding": "inplace",
        "label": "uint8",
        "numberOfBytes": "1"
      }
    }
  }
}